{
  "_format": "hh-sol-artifact-1",
  "contractName": "MultiSig",
  "sourceName": "contracts/MultiSig.sol",
  "abi": [
    {
      "inputs": [
        {
          "internalType": "address[]",
          "name": "_signers",
          "type": "address[]"
        },
        {
          "internalType": "uint256",
          "name": "_requiredQuorum",
          "type": "uint256"
        }
      ],
      "stateMutability": "nonpayable",
      "type": "constructor"
    },
    {
      "anonymous": false,
      "inputs": [
        {
          "indexed": false,
          "internalType": "uint256",
          "name": "trxnId",
          "type": "uint256"
        },
        {
          "indexed": false,
          "internalType": "address",
          "name": "approvedBy",
          "type": "address"
        }
      ],
      "name": "TransactionApproved",
      "type": "event"
    },
    {
      "anonymous": false,
      "inputs": [
        {
          "indexed": false,
          "internalType": "uint256",
          "name": "trxnId",
          "type": "uint256"
        },
        {
          "indexed": false,
          "internalType": "uint256",
          "name": "quorum",
          "type": "uint256"
        }
      ],
      "name": "TransactionConfirmed",
      "type": "event"
    },
    {
      "anonymous": false,
      "inputs": [
        {
          "indexed": false,
          "internalType": "uint256",
          "name": "trxnId",
          "type": "uint256"
        },
        {
          "indexed": false,
          "internalType": "address",
          "name": "destination",
          "type": "address"
        },
        {
          "indexed": false,
          "internalType": "address",
          "name": "executedBy",
          "type": "address"
        },
        {
          "indexed": false,
          "internalType": "uint256",
          "name": "value",
          "type": "uint256"
        }
      ],
      "name": "TransactionExecuted",
      "type": "event"
    },
    {
      "anonymous": false,
      "inputs": [
        {
          "indexed": false,
          "internalType": "uint256",
          "name": "trxnId",
          "type": "uint256"
        },
        {
          "indexed": false,
          "internalType": "address",
          "name": "proposedBy",
          "type": "address"
        }
      ],
      "name": "TransactionProposed",
      "type": "event"
    },
    {
      "inputs": [
        {
          "internalType": "uint256",
          "name": "_trxnId",
          "type": "uint256"
        }
      ],
      "name": "approveTransaction",
      "outputs": [],
      "stateMutability": "nonpayable",
      "type": "function"
    },
    {
      "inputs": [
        {
          "internalType": "uint256",
          "name": "",
          "type": "uint256"
        }
      ],
      "name": "authorizedSigners",
      "outputs": [
        {
          "internalType": "address",
          "name": "",
          "type": "address"
        }
      ],
      "stateMutability": "view",
      "type": "function"
    },
    {
      "inputs": [
        {
          "internalType": "uint256",
          "name": "_trxnId",
          "type": "uint256"
        }
      ],
      "name": "executeTransaction",
      "outputs": [],
      "stateMutability": "nonpayable",
      "type": "function"
    },
    {
      "inputs": [],
      "name": "getAuthorizedSigners",
      "outputs": [
        {
          "internalType": "address[]",
          "name": "",
          "type": "address[]"
        }
      ],
      "stateMutability": "view",
      "type": "function"
    },
    {
      "inputs": [],
      "name": "getTransactions",
      "outputs": [
        {
          "components": [
            {
              "internalType": "address",
              "name": "destination",
              "type": "address"
            },
            {
              "internalType": "uint256",
              "name": "value",
              "type": "uint256"
            },
            {
              "internalType": "bytes",
              "name": "data",
              "type": "bytes"
            },
            {
              "internalType": "bool",
              "name": "executed",
              "type": "bool"
            },
            {
              "internalType": "uint256",
              "name": "quorum",
              "type": "uint256"
            }
          ],
          "internalType": "struct MultiSig.Transaction[]",
          "name": "",
          "type": "tuple[]"
        }
      ],
      "stateMutability": "view",
      "type": "function"
    },
    {
      "inputs": [
        {
          "internalType": "address",
          "name": "",
          "type": "address"
        }
      ],
      "name": "isSigner",
      "outputs": [
        {
          "internalType": "bool",
          "name": "",
          "type": "bool"
        }
      ],
      "stateMutability": "view",
      "type": "function"
    },
    {
      "inputs": [],
      "name": "owner",
      "outputs": [
        {
          "internalType": "address",
          "name": "",
          "type": "address"
        }
      ],
      "stateMutability": "view",
      "type": "function"
    },
    {
      "inputs": [
        {
          "internalType": "address",
          "name": "_destination",
          "type": "address"
        },
        {
          "internalType": "uint256",
          "name": "_value",
          "type": "uint256"
        },
        {
          "internalType": "bytes",
          "name": "_data",
          "type": "bytes"
        }
      ],
      "name": "proposeTransaction",
      "outputs": [],
      "stateMutability": "nonpayable",
      "type": "function"
    },
    {
      "inputs": [],
      "name": "requiredQuorum",
      "outputs": [
        {
          "internalType": "uint256",
          "name": "",
          "type": "uint256"
        }
      ],
      "stateMutability": "view",
      "type": "function"
    },
    {
      "inputs": [
        {
          "internalType": "uint256",
          "name": "",
          "type": "uint256"
        }
      ],
      "name": "transactions",
      "outputs": [
        {
          "internalType": "address",
          "name": "destination",
          "type": "address"
        },
        {
          "internalType": "uint256",
          "name": "value",
          "type": "uint256"
        },
        {
          "internalType": "bytes",
          "name": "data",
          "type": "bytes"
        },
        {
          "internalType": "bool",
          "name": "executed",
          "type": "bool"
        },
        {
          "internalType": "uint256",
          "name": "quorum",
          "type": "uint256"
        }
      ],
      "stateMutability": "view",
      "type": "function"
    }
  ],
  "bytecode": "0x60806040523480156200001157600080fd5b506040516200224038038062002240833981810160405281019062000037919062000442565b33600260006101000a81548173ffffffffffffffffffffffffffffffffffffffff021916908373ffffffffffffffffffffffffffffffffffffffff16021790555060005b8251811015620002095760008382815181106200009d576200009c620004a8565b5b60200260200101519050600360008273ffffffffffffffffffffffffffffffffffffffff1673ffffffffffffffffffffffffffffffffffffffff16815260200190815260200160002060009054906101000a900460ff161562000137576040517f08c379a00000000000000000000000000000000000000000000000000000000081526004016200012e9062000538565b60405180910390fd5b6001600360008373ffffffffffffffffffffffffffffffffffffffff1673ffffffffffffffffffffffffffffffffffffffff16815260200190815260200160002060006101000a81548160ff0219169083151502179055506000819080600181540180825580915050600190039060005260206000200160009091909190916101000a81548173ffffffffffffffffffffffffffffffffffffffff021916908373ffffffffffffffffffffffffffffffffffffffff160217905550508080620002009062000589565b9150506200007b565b50806001819055505050620005d6565b6000604051905090565b600080fd5b600080fd5b600080fd5b6000601f19601f8301169050919050565b7f4e487b7100000000000000000000000000000000000000000000000000000000600052604160045260246000fd5b6200027d8262000232565b810181811067ffffffffffffffff821117156200029f576200029e62000243565b5b80604052505050565b6000620002b462000219565b9050620002c2828262000272565b919050565b600067ffffffffffffffff821115620002e557620002e462000243565b5b602082029050602081019050919050565b600080fd5b600073ffffffffffffffffffffffffffffffffffffffff82169050919050565b60006200032882620002fb565b9050919050565b6200033a816200031b565b81146200034657600080fd5b50565b6000815190506200035a816200032f565b92915050565b6000620003776200037184620002c7565b620002a8565b905080838252602082019050602084028301858111156200039d576200039c620002f6565b5b835b81811015620003ca5780620003b5888262000349565b8452602084019350506020810190506200039f565b5050509392505050565b600082601f830112620003ec57620003eb6200022d565b5b8151620003fe84826020860162000360565b91505092915050565b6000819050919050565b6200041c8162000407565b81146200042857600080fd5b50565b6000815190506200043c8162000411565b92915050565b600080604083850312156200045c576200045b62000223565b5b600083015167ffffffffffffffff8111156200047d576200047c62000228565b5b6200048b85828601620003d4565b92505060206200049e858286016200042b565b9150509250929050565b7f4e487b7100000000000000000000000000000000000000000000000000000000600052603260045260246000fd5b600082825260208201905092915050565b7f7369676e657220616c7265616479206578697374730000000000000000000000600082015250565b600062000520601583620004d7565b91506200052d82620004e8565b602082019050919050565b60006020820190508181036000830152620005538162000511565b9050919050565b7f4e487b7100000000000000000000000000000000000000000000000000000000600052601160045260246000fd5b6000620005968262000407565b91507fffffffffffffffffffffffffffffffffffffffffffffffffffffffffffffffff8203620005cb57620005ca6200055a565b5b600182019050919050565b611c5a80620005e66000396000f3fe608060405234801561001057600080fd5b506004361061009e5760003560e01c80638d8be680116100665780638d8be680146101475780638da5cb5b146101655780639ace38c214610183578063a2b84460146101b7578063ee22610b146101e75761009e565b8063242232d1146100a35780635e90852d146100bf5780637036014e146100db5780637df73e27146100f957806383920e9014610129575b600080fd5b6100bd60048036038101906100b89190610dfb565b610203565b005b6100d960048036038101906100d49190610fcc565b610572565b005b6100e36106ba565b6040516100f0919061104a565b60405180910390f35b610113600480360381019061010e9190611065565b6106c0565b60405161012091906110ad565b60405180910390f35b6101316106e0565b60405161013e91906112ac565b60405180910390f35b61014f610856565b60405161015c919061137d565b60405180910390f35b61016d6108e4565b60405161017a91906113ae565b60405180910390f35b61019d60048036038101906101989190610dfb565b61090a565b6040516101ae959493929190611413565b60405180910390f35b6101d160048036038101906101cc9190610dfb565b610a05565b6040516101de91906113ae565b60405180910390f35b61020160048036038101906101fc9190610dfb565b610a44565b005b600260009054906101000a900473ffffffffffffffffffffffffffffffffffffffff1673ffffffffffffffffffffffffffffffffffffffff163373ffffffffffffffffffffffffffffffffffffffff1614806102a85750600360003373ffffffffffffffffffffffffffffffffffffffff1673ffffffffffffffffffffffffffffffffffffffff16815260200190815260200160002060009054906101000a900460ff165b6102e7576040517f08c379a00000000000000000000000000000000000000000000000000000000081526004016102de90611516565b60405180910390fd5b806005805490501161032e576040517f08c379a000000000000000000000000000000000000000000000000000000000815260040161032590611582565b60405180910390fd5b60058181548110610342576103416115a2565b5b906000526020600020906005020160030160009054906101000a900460ff16156103a1576040517f08c379a00000000000000000000000000000000000000000000000000000000081526004016103989061161d565b60405180910390fd5b6004600082815260200190815260200160002060003373ffffffffffffffffffffffffffffffffffffffff1673ffffffffffffffffffffffffffffffffffffffff16815260200190815260200160002060009054906101000a900460ff161561043f576040517f08c379a000000000000000000000000000000000000000000000000000000000815260040161043690611689565b60405180910390fd5b600060058281548110610455576104546115a2565b5b90600052602060002090600502019050600181600401600082825461047a91906116d8565b9250508190555060016004600084815260200190815260200160002060003373ffffffffffffffffffffffffffffffffffffffff1673ffffffffffffffffffffffffffffffffffffffff16815260200190815260200160002060006101000a81548160ff0219169083151502179055507f924813d717e221b5f46dcd8a56da1679e4612584ab3237d55e5faabf6f6a3079823360405161051b92919061170c565b60405180910390a160015481600401541061056e577f4b7c1d2c22e04f819aa1ab2f67b789b2432185c9cedbd628e119c1ff7e6f46a5828260040154604051610565929190611735565b60405180910390a15b5050565b6000600580549050905060056040518060a001604052808673ffffffffffffffffffffffffffffffffffffffff1681526020018581526020018481526020016000151581526020016000815250908060018154018082558091505060019003906000526020600020906005020160009091909190915060008201518160000160006101000a81548173ffffffffffffffffffffffffffffffffffffffff021916908373ffffffffffffffffffffffffffffffffffffffff16021790555060208201518160010155604082015181600201908161064e919061196a565b5060608201518160030160006101000a81548160ff0219169083151502179055506080820151816004015550507f85a02044abc1a0089f390169e926132b38b4ff22cdb91072c2c43c03e8c710d481336040516106ac92919061170c565b60405180910390a150505050565b60015481565b60036020528060005260406000206000915054906101000a900460ff1681565b60606005805480602002602001604051908101604052809291908181526020016000905b8282101561084d57838290600052602060002090600502016040518060a00160405290816000820160009054906101000a900473ffffffffffffffffffffffffffffffffffffffff1673ffffffffffffffffffffffffffffffffffffffff1673ffffffffffffffffffffffffffffffffffffffff168152602001600182015481526020016002820180546107979061178d565b80601f01602080910402602001604051908101604052809291908181526020018280546107c39061178d565b80156108105780601f106107e557610100808354040283529160200191610810565b820191906000526020600020905b8154815290600101906020018083116107f357829003601f168201915b505050505081526020016003820160009054906101000a900460ff1615151515815260200160048201548152505081526020019060010190610704565b50505050905090565b606060008054806020026020016040519081016040528092919081815260200182805480156108da57602002820191906000526020600020905b8160009054906101000a900473ffffffffffffffffffffffffffffffffffffffff1673ffffffffffffffffffffffffffffffffffffffff1681526020019060010190808311610890575b5050505050905090565b600260009054906101000a900473ffffffffffffffffffffffffffffffffffffffff1681565b6005818154811061091a57600080fd5b90600052602060002090600502016000915090508060000160009054906101000a900473ffffffffffffffffffffffffffffffffffffffff16908060010154908060020180546109699061178d565b80601f01602080910402602001604051908101604052809291908181526020018280546109959061178d565b80156109e25780601f106109b7576101008083540402835291602001916109e2565b820191906000526020600020905b8154815290600101906020018083116109c557829003601f168201915b5050505050908060030160009054906101000a900460ff16908060040154905085565b60008181548110610a1557600080fd5b906000526020600020016000915054906101000a900473ffffffffffffffffffffffffffffffffffffffff1681565b600260009054906101000a900473ffffffffffffffffffffffffffffffffffffffff1673ffffffffffffffffffffffffffffffffffffffff163373ffffffffffffffffffffffffffffffffffffffff161480610ae95750600360003373ffffffffffffffffffffffffffffffffffffffff1673ffffffffffffffffffffffffffffffffffffffff16815260200190815260200160002060009054906101000a900460ff165b610b28576040517f08c379a0000000000000000000000000000000000000000000000000000000008152600401610b1f90611516565b60405180910390fd5b8060058054905011610b6f576040517f08c379a0000000000000000000000000000000000000000000000000000000008152600401610b6690611582565b60405180910390fd5b60058181548110610b8357610b826115a2565b5b906000526020600020906005020160030160009054906101000a900460ff1615610be2576040517f08c379a0000000000000000000000000000000000000000000000000000000008152600401610bd99061161d565b60405180910390fd5b600060058281548110610bf857610bf76115a2565b5b9060005260206000209060050201905060015481600401541015610c51576040517f08c379a0000000000000000000000000000000000000000000000000000000008152600401610c4890611aae565b60405180910390fd5b60018160030160006101000a81548160ff02191690831515021790555060008160000160009054906101000a900473ffffffffffffffffffffffffffffffffffffffff1673ffffffffffffffffffffffffffffffffffffffff16826001015483600201604051610cc19190611b5c565b60006040518083038185875af1925050503d8060008114610cfe576040519150601f19603f3d011682016040523d82523d6000602084013e610d03565b606091505b5050905080610d47576040517f08c379a0000000000000000000000000000000000000000000000000000000008152600401610d3e90611bbf565b60405180910390fd5b7f36dc6b28af1028509a71e5c4781cbffb8dfd765a490d86d461c87271c652915d838360000160009054906101000a900473ffffffffffffffffffffffffffffffffffffffff16338560010154604051610da49493929190611bdf565b60405180910390a1505050565b6000604051905090565b600080fd5b600080fd5b6000819050919050565b610dd881610dc5565b8114610de357600080fd5b50565b600081359050610df581610dcf565b92915050565b600060208284031215610e1157610e10610dbb565b5b6000610e1f84828501610de6565b91505092915050565b600073ffffffffffffffffffffffffffffffffffffffff82169050919050565b6000610e5382610e28565b9050919050565b610e6381610e48565b8114610e6e57600080fd5b50565b600081359050610e8081610e5a565b92915050565b600080fd5b600080fd5b6000601f19601f8301169050919050565b7f4e487b7100000000000000000000000000000000000000000000000000000000600052604160045260246000fd5b610ed982610e90565b810181811067ffffffffffffffff82111715610ef857610ef7610ea1565b5b80604052505050565b6000610f0b610db1565b9050610f178282610ed0565b919050565b600067ffffffffffffffff821115610f3757610f36610ea1565b5b610f4082610e90565b9050602081019050919050565b82818337600083830152505050565b6000610f6f610f6a84610f1c565b610f01565b905082815260208101848484011115610f8b57610f8a610e8b565b5b610f96848285610f4d565b509392505050565b600082601f830112610fb357610fb2610e86565b5b8135610fc3848260208601610f5c565b91505092915050565b600080600060608486031215610fe557610fe4610dbb565b5b6000610ff386828701610e71565b935050602061100486828701610de6565b925050604084013567ffffffffffffffff81111561102557611024610dc0565b5b61103186828701610f9e565b9150509250925092565b61104481610dc5565b82525050565b600060208201905061105f600083018461103b565b92915050565b60006020828403121561107b5761107a610dbb565b5b600061108984828501610e71565b91505092915050565b60008115159050919050565b6110a781611092565b82525050565b60006020820190506110c2600083018461109e565b92915050565b600081519050919050565b600082825260208201905092915050565b6000819050602082019050919050565b6110fd81610e48565b82525050565b61110c81610dc5565b82525050565b600081519050919050565b600082825260208201905092915050565b60005b8381101561114c578082015181840152602081019050611131565b60008484015250505050565b600061116382611112565b61116d818561111d565b935061117d81856020860161112e565b61118681610e90565b840191505092915050565b61119a81611092565b82525050565b600060a0830160008301516111b860008601826110f4565b5060208301516111cb6020860182611103565b50604083015184820360408601526111e38282611158565b91505060608301516111f86060860182611191565b50608083015161120b6080860182611103565b508091505092915050565b600061122283836111a0565b905092915050565b6000602082019050919050565b6000611242826110c8565b61124c81856110d3565b93508360208202850161125e856110e4565b8060005b8581101561129a578484038952815161127b8582611216565b94506112868361122a565b925060208a01995050600181019050611262565b50829750879550505050505092915050565b600060208201905081810360008301526112c68184611237565b905092915050565b600081519050919050565b600082825260208201905092915050565b6000819050602082019050919050565b600061130683836110f4565b60208301905092915050565b6000602082019050919050565b600061132a826112ce565b61133481856112d9565b935061133f836112ea565b8060005b8381101561137057815161135788826112fa565b975061136283611312565b925050600181019050611343565b5085935050505092915050565b60006020820190508181036000830152611397818461131f565b905092915050565b6113a881610e48565b82525050565b60006020820190506113c3600083018461139f565b92915050565b600082825260208201905092915050565b60006113e582611112565b6113ef81856113c9565b93506113ff81856020860161112e565b61140881610e90565b840191505092915050565b600060a082019050611428600083018861139f565b611435602083018761103b565b818103604083015261144781866113da565b9050611456606083018561109e565b611463608083018461103b565b9695505050505050565b600082825260208201905092915050565b7f4f6e6c7920636f6e7472616374206f776e6572206f7220617574686f72697a6560008201527f64207369676e6572732063616e20706572666f726d207468697320616374696f60208201527f6e00000000000000000000000000000000000000000000000000000000000000604082015250565b600061150060418361146d565b915061150b8261147e565b606082019050919050565b6000602082019050818103600083015261152f816114f3565b9050919050565b7f5472616e73616374696f6e20646f6573206e6f74206578697374000000000000600082015250565b600061156c601a8361146d565b915061157782611536565b602082019050919050565b6000602082019050818103600083015261159b8161155f565b9050919050565b7f4e487b7100000000000000000000000000000000000000000000000000000000600052603260045260246000fd5b7f5472616e73616374696f6e20616c726561647920657865637574656400000000600082015250565b6000611607601c8361146d565b9150611612826115d1565b602082019050919050565b60006020820190508181036000830152611636816115fa565b9050919050565b7f5369676e65722063616e206f6e6c7920617070726f7665206f6e636500000000600082015250565b6000611673601c8361146d565b915061167e8261163d565b602082019050919050565b600060208201905081810360008301526116a281611666565b9050919050565b7f4e487b7100000000000000000000000000000000000000000000000000000000600052601160045260246000fd5b60006116e382610dc5565b91506116ee83610dc5565b9250828201905080821115611706576117056116a9565b5b92915050565b6000604082019050611721600083018561103b565b61172e602083018461139f565b9392505050565b600060408201905061174a600083018561103b565b611757602083018461103b565b9392505050565b7f4e487b7100000000000000000000000000000000000000000000000000000000600052602260045260246000fd5b600060028204905060018216806117a557607f821691505b6020821081036117b8576117b761175e565b5b50919050565b60008190508160005260206000209050919050565b60006020601f8301049050919050565b600082821b905092915050565b6000600883026118207fffffffffffffffffffffffffffffffffffffffffffffffffffffffffffffffff826117e3565b61182a86836117e3565b95508019841693508086168417925050509392505050565b6000819050919050565b600061186761186261185d84610dc5565b611842565b610dc5565b9050919050565b6000819050919050565b6118818361184c565b61189561188d8261186e565b8484546117f0565b825550505050565b600090565b6118aa61189d565b6118b5818484611878565b505050565b5b818110156118d9576118ce6000826118a2565b6001810190506118bb565b5050565b601f82111561191e576118ef816117be565b6118f8846117d3565b81016020851015611907578190505b61191b611913856117d3565b8301826118ba565b50505b505050565b600082821c905092915050565b600061194160001984600802611923565b1980831691505092915050565b600061195a8383611930565b9150826002028217905092915050565b61197382611112565b67ffffffffffffffff81111561198c5761198b610ea1565b5b611996825461178d565b6119a18282856118dd565b600060209050601f8311600181146119d457600084156119c2578287015190505b6119cc858261194e565b865550611a34565b601f1984166119e2866117be565b60005b82811015611a0a578489015182556001820191506020850194506020810190506119e5565b86831015611a275784890151611a23601f891682611930565b8355505b6001600288020188555050505b505050505050565b7f5472616e73616374696f6e20686173206e6f742079657420726561636865642060008201527f7468652072657175697265642071756f72756d00000000000000000000000000602082015250565b6000611a9860338361146d565b9150611aa382611a3c565b604082019050919050565b60006020820190508181036000830152611ac781611a8b565b9050919050565b600081905092915050565b60008154611ae68161178d565b611af08186611ace565b94506001821660008114611b0b5760018114611b2057611b53565b60ff1983168652811515820286019350611b53565b611b29856117be565b60005b83811015611b4b57815481890152600182019150602081019050611b2c565b838801955050505b50505092915050565b6000611b688284611ad9565b915081905092915050565b7f4661696c656420746f2065786563757465207472616e73616374696f6e000000600082015250565b6000611ba9601d8361146d565b9150611bb482611b73565b602082019050919050565b60006020820190508181036000830152611bd881611b9c565b9050919050565b6000608082019050611bf4600083018761103b565b611c01602083018661139f565b611c0e604083018561139f565b611c1b606083018461103b565b9594505050505056fea2646970667358221220cc5f8103d335fb00c50472eaf3d1304cc188bf001a43affc0033c3aa5103cd3b64736f6c63430008130033",
  "linkReferences": {},
  "deployedLinkReferences": {}
}