{
  "_format": "hh-sol-artifact-1",
  "contractName": "Test",
  "sourceName": "contracts/Test.sol",
  "abi": [
    {
      "inputs": [],
      "stateMutability": "nonpayable",
      "type": "constructor"
    },
    {
      "inputs": [],
      "name": "counter",
      "outputs": [
        {
          "internalType": "int256",
          "name": "",
          "type": "int256"
        }
      ],
      "stateMutability": "view",
      "type": "function"
    },
    {
      "inputs": [],
      "name": "decrement",
      "outputs": [
        {
          "internalType": "int256",
          "name": "newValue",
          "type": "int256"
        }
      ],
      "stateMutability": "nonpayable",
      "type": "function"
    },
    {
      "inputs": [],
      "name": "increment",
      "outputs": [
        {
          "internalType": "int256",
          "name": "newValue",
          "type": "int256"
        }
      ],
      "stateMutability": "nonpayable",
      "type": "function"
    }
  ],
  "bytecode": "0x608060405234801561001057600080fd5b506000808190555061020c806100276000396000f3fe608060405234801561001057600080fd5b50600436106100415760003560e01c80632baeceb71461004657806361bc221a14610064578063d09de08a14610082575b600080fd5b61004e6100a0565b60405161005b9190610105565b60405180910390f35b61006c6100c3565b6040516100799190610105565b60405180910390f35b61008a6100c9565b6040516100979190610105565b60405180910390f35b600060016000808282546100b4919061014f565b92505081905550600054905090565b60005481565b600060016000808282546100dd9190610192565b92505081905550600054905090565b6000819050919050565b6100ff816100ec565b82525050565b600060208201905061011a60008301846100f6565b92915050565b7f4e487b7100000000000000000000000000000000000000000000000000000000600052601160045260246000fd5b600061015a826100ec565b9150610165836100ec565b925082820390508181126000841216828213600085121516171561018c5761018b610120565b5b92915050565b600061019d826100ec565b91506101a8836100ec565b9250828201905082811215600083121683821260008412151617156101d0576101cf610120565b5b9291505056fea2646970667358221220efa947fdedb193ed012c027fda55906de0f3b280a3ce03e22e5db72bc18d609a64736f6c63430008130033",
  "linkReferences": {},
  "deployedLinkReferences": {}
}